{
  "_format": "hh-sol-artifact-1",
  "contractName": "Stamps",
  "sourceName": "contracts/Stamps.sol",
  "abi": [
    {
      "inputs": [],
      "stateMutability": "payable",
      "type": "constructor"
    },
    {
      "anonymous": false,
      "inputs": [
        {
          "indexed": true,
          "internalType": "address",
          "name": "owner",
          "type": "address"
        },
        {
          "indexed": true,
          "internalType": "address",
          "name": "approved",
          "type": "address"
        },
        {
          "indexed": true,
          "internalType": "uint256",
          "name": "tokenId",
          "type": "uint256"
        }
      ],
      "name": "Approval",
      "type": "event"
    },
    {
      "anonymous": false,
      "inputs": [
        {
          "indexed": true,
          "internalType": "address",
          "name": "owner",
          "type": "address"
        },
        {
          "indexed": true,
          "internalType": "address",
          "name": "operator",
          "type": "address"
        },
        {
          "indexed": false,
          "internalType": "bool",
          "name": "approved",
          "type": "bool"
        }
      ],
      "name": "ApprovalForAll",
      "type": "event"
    },
    {
      "anonymous": false,
      "inputs": [
        {
          "indexed": true,
          "internalType": "address",
          "name": "from",
          "type": "address"
        },
        {
          "indexed": true,
          "internalType": "address",
          "name": "to",
          "type": "address"
        },
        {
          "indexed": true,
          "internalType": "uint256",
          "name": "tokenId",
          "type": "uint256"
        }
      ],
      "name": "Transfer",
      "type": "event"
    },
    {
      "inputs": [
        {
          "internalType": "address",
          "name": "to",
          "type": "address"
        },
        {
          "internalType": "uint256",
          "name": "tokenId",
          "type": "uint256"
        }
      ],
      "name": "approve",
      "outputs": [],
      "stateMutability": "nonpayable",
      "type": "function"
    },
    {
      "inputs": [
        {
          "internalType": "address",
          "name": "owner",
          "type": "address"
        }
      ],
      "name": "balanceOf",
      "outputs": [
        {
          "internalType": "uint256",
          "name": "",
          "type": "uint256"
        }
      ],
      "stateMutability": "view",
      "type": "function"
    },
    {
      "inputs": [
        {
          "internalType": "string",
          "name": "stampData",
          "type": "string"
        }
      ],
      "name": "createStamp",
      "outputs": [],
      "stateMutability": "payable",
      "type": "function"
    },
    {
      "inputs": [
        {
          "internalType": "uint256",
          "name": "tokenId",
          "type": "uint256"
        }
      ],
      "name": "getApproved",
      "outputs": [
        {
          "internalType": "address",
          "name": "",
          "type": "address"
        }
      ],
      "stateMutability": "view",
      "type": "function"
    },
    {
      "inputs": [],
      "name": "getTotalStamps",
      "outputs": [
        {
          "internalType": "uint256",
          "name": "",
          "type": "uint256"
        }
      ],
      "stateMutability": "view",
      "type": "function"
    },
    {
      "inputs": [
        {
          "internalType": "address",
          "name": "owner",
          "type": "address"
        },
        {
          "internalType": "address",
          "name": "operator",
          "type": "address"
        }
      ],
      "name": "isApprovedForAll",
      "outputs": [
        {
          "internalType": "bool",
          "name": "",
          "type": "bool"
        }
      ],
      "stateMutability": "view",
      "type": "function"
    },
    {
      "inputs": [],
      "name": "name",
      "outputs": [
        {
          "internalType": "string",
          "name": "",
          "type": "string"
        }
      ],
      "stateMutability": "view",
      "type": "function"
    },
    {
      "inputs": [
        {
          "internalType": "uint256",
          "name": "tokenId",
          "type": "uint256"
        }
      ],
      "name": "ownerOf",
      "outputs": [
        {
          "internalType": "address",
          "name": "",
          "type": "address"
        }
      ],
      "stateMutability": "view",
      "type": "function"
    },
    {
      "inputs": [
        {
          "internalType": "string",
          "name": "",
          "type": "string"
        }
      ],
      "name": "records",
      "outputs": [
        {
          "internalType": "string",
          "name": "",
          "type": "string"
        }
      ],
      "stateMutability": "view",
      "type": "function"
    },
    {
      "inputs": [
        {
          "internalType": "address",
          "name": "from",
          "type": "address"
        },
        {
          "internalType": "address",
          "name": "to",
          "type": "address"
        },
        {
          "internalType": "uint256",
          "name": "tokenId",
          "type": "uint256"
        }
      ],
      "name": "safeTransferFrom",
      "outputs": [],
      "stateMutability": "nonpayable",
      "type": "function"
    },
    {
      "inputs": [
        {
          "internalType": "address",
          "name": "from",
          "type": "address"
        },
        {
          "internalType": "address",
          "name": "to",
          "type": "address"
        },
        {
          "internalType": "uint256",
          "name": "tokenId",
          "type": "uint256"
        },
        {
          "internalType": "bytes",
          "name": "data",
          "type": "bytes"
        }
      ],
      "name": "safeTransferFrom",
      "outputs": [],
      "stateMutability": "nonpayable",
      "type": "function"
    },
    {
      "inputs": [
        {
          "internalType": "address",
          "name": "operator",
          "type": "address"
        },
        {
          "internalType": "bool",
          "name": "approved",
          "type": "bool"
        }
      ],
      "name": "setApprovalForAll",
      "outputs": [],
      "stateMutability": "nonpayable",
      "type": "function"
    },
    {
      "inputs": [
        {
          "internalType": "string",
          "name": "",
          "type": "string"
        }
      ],
      "name": "stamps",
      "outputs": [
        {
          "internalType": "address",
          "name": "",
          "type": "address"
        }
      ],
      "stateMutability": "view",
      "type": "function"
    },
    {
      "inputs": [
        {
          "internalType": "bytes4",
          "name": "interfaceId",
          "type": "bytes4"
        }
      ],
      "name": "supportsInterface",
      "outputs": [
        {
          "internalType": "bool",
          "name": "",
          "type": "bool"
        }
      ],
      "stateMutability": "view",
      "type": "function"
    },
    {
      "inputs": [],
      "name": "symbol",
      "outputs": [
        {
          "internalType": "string",
          "name": "",
          "type": "string"
        }
      ],
      "stateMutability": "view",
      "type": "function"
    },
    {
      "inputs": [
        {
          "internalType": "uint256",
          "name": "tokenId",
          "type": "uint256"
        }
      ],
      "name": "tokenURI",
      "outputs": [
        {
          "internalType": "string",
          "name": "",
          "type": "string"
        }
      ],
      "stateMutability": "view",
      "type": "function"
    },
    {
      "inputs": [
        {
          "internalType": "address",
          "name": "from",
          "type": "address"
        },
        {
          "internalType": "address",
          "name": "to",
          "type": "address"
        },
        {
          "internalType": "uint256",
          "name": "tokenId",
          "type": "uint256"
        }
      ],
      "name": "transferFrom",
      "outputs": [],
      "stateMutability": "nonpayable",
      "type": "function"
    }
  ],
  "bytecode": "0x60806040526040518061020001604052806101db8152602001620039806101db9139600890805190602001906200003892919062000162565b50604051806101e001604052806101a68152602001620037da6101a69139600990805190602001906200006d92919062000162565b506040518060400160405280601a81526020017f3c2f703e3c2f666f726569676e4f626a6563743e3c2f7376673e000000000000815250600a9080519060200190620000bb92919062000162565b506040518060400160405280601381526020017f536d617274205374616d702053657276696365000000000000000000000000008152506040518060400160405280600381526020017f535353000000000000000000000000000000000000000000000000000000000081525081600090805190602001906200014092919062000162565b5080600190805190602001906200015992919062000162565b50505062000277565b828054620001709062000241565b90600052602060002090601f016020900481019282620001945760008555620001e0565b82601f10620001af57805160ff1916838001178555620001e0565b82800160010185558215620001e0579182015b82811115620001df578251825591602001919060010190620001c2565b5b509050620001ef9190620001f3565b5090565b5b808211156200020e576000816000905550600101620001f4565b5090565b7f4e487b7100000000000000000000000000000000000000000000000000000000600052602260045260246000fd5b600060028204905060018216806200025a57607f821691505b6020821081141562000271576200027062000212565b5b50919050565b61355380620002876000396000f3fe6080604052600436106100fe5760003560e01c80636352211e11610095578063a9481e9111610064578063a9481e911461034a578063b88d4fde14610387578063c87b56dd146103b0578063e985e9c5146103ed578063ef9170f51461042a576100fe565b80636352211e1461027c57806370a08231146102b957806395d89b41146102f6578063a22cb46514610321576100fe565b80631320ed2d116100d15780631320ed2d146101d157806323b872dd146101ed57806342842e0e14610216578063541e771d1461023f576100fe565b806301ffc9a71461010357806306fdde0314610140578063081812fc1461016b578063095ea7b3146101a8575b600080fd5b34801561010f57600080fd5b5061012a600480360381019061012591906121e9565b610455565b6040516101379190612231565b60405180910390f35b34801561014c57600080fd5b50610155610537565b60405161016291906122e5565b60405180910390f35b34801561017757600080fd5b50610192600480360381019061018d919061233d565b6105c9565b60405161019f91906123ab565b60405180910390f35b3480156101b457600080fd5b506101cf60048036038101906101ca91906123f2565b61060f565b005b6101eb60048036038101906101e69190612497565b610727565b005b3480156101f957600080fd5b50610214600480360381019061020f91906124e4565b61088a565b005b34801561022257600080fd5b5061023d600480360381019061023891906124e4565b6108ea565b005b34801561024b57600080fd5b5061026660048036038101906102619190612667565b61090a565b60405161027391906122e5565b60405180910390f35b34801561028857600080fd5b506102a3600480360381019061029e919061233d565b6109c0565b6040516102b091906123ab565b60405180910390f35b3480156102c557600080fd5b506102e060048036038101906102db91906126b0565b610a47565b6040516102ed91906126ec565b60405180910390f35b34801561030257600080fd5b5061030b610aff565b60405161031891906122e5565b60405180910390f35b34801561032d57600080fd5b5061034860048036038101906103439190612733565b610b91565b005b34801561035657600080fd5b50610371600480360381019061036c9190612667565b610ba7565b60405161037e91906123ab565b60405180910390f35b34801561039357600080fd5b506103ae60048036038101906103a99190612814565b610bf0565b005b3480156103bc57600080fd5b506103d760048036038101906103d2919061233d565b610c52565b6040516103e491906122e5565b60405180910390f35b3480156103f957600080fd5b50610414600480360381019061040f9190612897565b610d65565b6040516104219190612231565b60405180910390f35b34801561043657600080fd5b5061043f610df9565b60405161044c91906126ec565b60405180910390f35b60007f80ac58cd000000000000000000000000000000000000000000000000000000007bffffffffffffffffffffffffffffffffffffffffffffffffffffffff1916827bffffffffffffffffffffffffffffffffffffffffffffffffffffffff1916148061052057507f5b5e139f000000000000000000000000000000000000000000000000000000007bffffffffffffffffffffffffffffffffffffffffffffffffffffffff1916827bffffffffffffffffffffffffffffffffffffffffffffffffffffffff1916145b80610530575061052f82610e1c565b5b9050919050565b60606000805461054690612906565b80601f016020809104026020016040519081016040528092919081815260200182805461057290612906565b80156105bf5780601f10610594576101008083540402835291602001916105bf565b820191906000526020600020905b8154815290600101906020018083116105a257829003601f168201915b5050505050905090565b60006105d482610e86565b6004600083815260200190815260200160002060009054906101000a900473ffffffffffffffffffffffffffffffffffffffff169050919050565b600061061a826109c0565b90508073ffffffffffffffffffffffffffffffffffffffff168373ffffffffffffffffffffffffffffffffffffffff16141561068b576040517f08c379a0000000000000000000000000000000000000000000000000000000008152600401610682906129aa565b60405180910390fd5b8073ffffffffffffffffffffffffffffffffffffffff166106aa610ed1565b73ffffffffffffffffffffffffffffffffffffffff1614806106d957506106d8816106d3610ed1565b610d65565b5b610718576040517f08c379a000000000000000000000000000000000000000000000000000000000815260040161070f90612a3c565b60405180910390fd5b6107228383610ed9565b505050565b60006107336007610f92565b90506000600861074283610fa0565b60098686600a60405160200161075d96959493929190612b51565b604051602081830303815290604052905060006107a061077c83611078565b60405160200161078c9190612c5c565b604051602081830303815290604052611078565b90506000816040516020016107b59190612cd5565b60405160208183030381529060405290506108056040518060400160405280600381526020017f5552490000000000000000000000000000000000000000000000000000000000815250826111dc565b61080f3385611278565b6108198482611296565b33600b878760405161082c929190612cf7565b908152602001604051809103902060006101000a81548173ffffffffffffffffffffffffffffffffffffffff021916908373ffffffffffffffffffffffffffffffffffffffff160217905550610882600761130a565b505050505050565b61089b610895610ed1565b82611320565b6108da576040517f08c379a00000000000000000000000000000000000000000000000000000000081526004016108d190612d82565b60405180910390fd5b6108e58383836113b5565b505050565b61090583838360405180602001604052806000815250610bf0565b505050565b600c81805160208101820180518482526020830160208501208183528095505050505050600091509050805461093f90612906565b80601f016020809104026020016040519081016040528092919081815260200182805461096b90612906565b80156109b85780601f1061098d576101008083540402835291602001916109b8565b820191906000526020600020905b81548152906001019060200180831161099b57829003601f168201915b505050505081565b6000806109cc836116af565b9050600073ffffffffffffffffffffffffffffffffffffffff168173ffffffffffffffffffffffffffffffffffffffff161415610a3e576040517f08c379a0000000000000000000000000000000000000000000000000000000008152600401610a3590612dee565b60405180910390fd5b80915050919050565b60008073ffffffffffffffffffffffffffffffffffffffff168273ffffffffffffffffffffffffffffffffffffffff161415610ab8576040517f08c379a0000000000000000000000000000000000000000000000000000000008152600401610aaf90612e80565b60405180910390fd5b600360008373ffffffffffffffffffffffffffffffffffffffff1673ffffffffffffffffffffffffffffffffffffffff168152602001908152602001600020549050919050565b606060018054610b0e90612906565b80601f0160208091040260200160405190810160405280929190818152602001828054610b3a90612906565b8015610b875780601f10610b5c57610100808354040283529160200191610b87565b820191906000526020600020905b815481529060010190602001808311610b6a57829003601f168201915b5050505050905090565b610ba3610b9c610ed1565b83836116ec565b5050565b600b818051602081018201805184825260208301602085012081835280955050505050506000915054906101000a900473ffffffffffffffffffffffffffffffffffffffff1681565b610c01610bfb610ed1565b83611320565b610c40576040517f08c379a0000000000000000000000000000000000000000000000000000000008152600401610c3790612d82565b60405180910390fd5b610c4c84848484611859565b50505050565b6060610c5d82610e86565b6000600660008481526020019081526020016000208054610c7d90612906565b80601f0160208091040260200160405190810160405280929190818152602001828054610ca990612906565b8015610cf65780601f10610ccb57610100808354040283529160200191610cf6565b820191906000526020600020905b815481529060010190602001808311610cd957829003601f168201915b505050505090506000610d076118b5565b9050600081511415610d1d578192505050610d60565b600082511115610d52578082604051602001610d3a929190612ea0565b60405160208183030381529060405292505050610d60565b610d5b846118cc565b925050505b919050565b6000600560008473ffffffffffffffffffffffffffffffffffffffff1673ffffffffffffffffffffffffffffffffffffffff16815260200190815260200160002060008373ffffffffffffffffffffffffffffffffffffffff1673ffffffffffffffffffffffffffffffffffffffff16815260200190815260200160002060009054906101000a900460ff16905092915050565b6000610e0d610e086007610f92565b611934565b610e176007610f92565b905090565b60007f01ffc9a7000000000000000000000000000000000000000000000000000000007bffffffffffffffffffffffffffffffffffffffffffffffffffffffff1916827bffffffffffffffffffffffffffffffffffffffffffffffffffffffff1916149050919050565b610e8f816119cd565b610ece576040517f08c379a0000000000000000000000000000000000000000000000000000000008152600401610ec590612dee565b60405180910390fd5b50565b600033905090565b816004600083815260200190815260200160002060006101000a81548173ffffffffffffffffffffffffffffffffffffffff021916908373ffffffffffffffffffffffffffffffffffffffff160217905550808273ffffffffffffffffffffffffffffffffffffffff16610f4c836109c0565b73ffffffffffffffffffffffffffffffffffffffff167f8c5be1e5ebec7d5bd14f71427d1e84f3dd0314c0f7b2291e5b200ac8c7c3b92560405160405180910390a45050565b600081600001549050919050565b606060006001610faf84611a0e565b01905060008167ffffffffffffffff811115610fce57610fcd61253c565b5b6040519080825280601f01601f1916602001820160405280156110005781602001600182028036833780820191505090505b509050600082602001820190505b60011561106d578080600190039150507f3031323334353637383961626364656600000000000000000000000000000000600a86061a8153600a858161105757611056612ec4565b5b04945060008514156110685761106d565b61100e565b819350505050919050565b606060008251141561109b576040518060200160405280600081525090506111d7565b60006040518060600160405280604081526020016134de60409139905060006003600285516110ca9190612f22565b6110d49190612f78565b60046110e09190612fa9565b67ffffffffffffffff8111156110f9576110f861253c565b5b6040519080825280601f01601f19166020018201604052801561112b5781602001600182028036833780820191505090505b509050600182016020820185865187015b80821015611197576003820191508151603f8160121c168501518453600184019350603f81600c1c168501518453600184019350603f8160061c168501518453600184019350603f811685015184536001840193505061113c565b50506003865106600181146111b357600281146111c6576111ce565b603d6001830353603d60028303536111ce565b603d60018303535b50505080925050505b919050565b61127482826040516024016111f2929190613003565b6040516020818303038152906040527f4b5c4277000000000000000000000000000000000000000000000000000000007bffffffffffffffffffffffffffffffffffffffffffffffffffffffff19166020820180517bffffffffffffffffffffffffffffffffffffffffffffffffffffffff8381831617835250505050611b61565b5050565b611292828260405180602001604052806000815250611b8a565b5050565b61129f826119cd565b6112de576040517f08c379a00000000000000000000000000000000000000000000000000000000081526004016112d5906130ac565b60405180910390fd5b806006600084815260200190815260200160002090805190602001906113059291906120da565b505050565b6001816000016000828254019250508190555050565b60008061132c836109c0565b90508073ffffffffffffffffffffffffffffffffffffffff168473ffffffffffffffffffffffffffffffffffffffff16148061136e575061136d8185610d65565b5b806113ac57508373ffffffffffffffffffffffffffffffffffffffff16611394846105c9565b73ffffffffffffffffffffffffffffffffffffffff16145b91505092915050565b8273ffffffffffffffffffffffffffffffffffffffff166113d5826109c0565b73ffffffffffffffffffffffffffffffffffffffff161461142b576040517f08c379a00000000000000000000000000000000000000000000000000000000081526004016114229061313e565b60405180910390fd5b600073ffffffffffffffffffffffffffffffffffffffff168273ffffffffffffffffffffffffffffffffffffffff16141561149b576040517f08c379a0000000000000000000000000000000000000000000000000000000008152600401611492906131d0565b60405180910390fd5b6114a88383836001611be5565b8273ffffffffffffffffffffffffffffffffffffffff166114c8826109c0565b73ffffffffffffffffffffffffffffffffffffffff161461151e576040517f08c379a00000000000000000000000000000000000000000000000000000000081526004016115159061313e565b60405180910390fd5b6004600082815260200190815260200160002060006101000a81549073ffffffffffffffffffffffffffffffffffffffff02191690556001600360008573ffffffffffffffffffffffffffffffffffffffff1673ffffffffffffffffffffffffffffffffffffffff168152602001908152602001600020600082825403925050819055506001600360008473ffffffffffffffffffffffffffffffffffffffff1673ffffffffffffffffffffffffffffffffffffffff16815260200190815260200160002060008282540192505081905550816002600083815260200190815260200160002060006101000a81548173ffffffffffffffffffffffffffffffffffffffff021916908373ffffffffffffffffffffffffffffffffffffffff160217905550808273ffffffffffffffffffffffffffffffffffffffff168473ffffffffffffffffffffffffffffffffffffffff167fddf252ad1be2c89b69c2b068fc378daa952ba7f163c4a11628f55a4df523b3ef60405160405180910390a46116aa8383836001611d0b565b505050565b60006002600083815260200190815260200160002060009054906101000a900473ffffffffffffffffffffffffffffffffffffffff169050919050565b8173ffffffffffffffffffffffffffffffffffffffff168373ffffffffffffffffffffffffffffffffffffffff16141561175b576040517f08c379a00000000000000000000000000000000000000000000000000000000081526004016117529061323c565b60405180910390fd5b80600560008573ffffffffffffffffffffffffffffffffffffffff1673ffffffffffffffffffffffffffffffffffffffff16815260200190815260200160002060008473ffffffffffffffffffffffffffffffffffffffff1673ffffffffffffffffffffffffffffffffffffffff16815260200190815260200160002060006101000a81548160ff0219169083151502179055508173ffffffffffffffffffffffffffffffffffffffff168373ffffffffffffffffffffffffffffffffffffffff167f17307eab39ab6107e8899845ad3d59bd9653f200f220920489ca2b5937696c318360405161184c9190612231565b60405180910390a3505050565b6118648484846113b5565b61187084848484611d11565b6118af576040517f08c379a00000000000000000000000000000000000000000000000000000000081526004016118a6906132ce565b60405180910390fd5b50505050565b606060405180602001604052806000815250905090565b60606118d782610e86565b60006118e16118b5565b90506000815111611901576040518060200160405280600081525061192c565b8061190b84610fa0565b60405160200161191c929190612ea0565b6040516020818303038152906040525b915050919050565b6119ca8160405160240161194891906126ec565b6040516020818303038152906040527ff82c50f1000000000000000000000000000000000000000000000000000000007bffffffffffffffffffffffffffffffffffffffffffffffffffffffff19166020820180517bffffffffffffffffffffffffffffffffffffffffffffffffffffffff8381831617835250505050611b61565b50565b60008073ffffffffffffffffffffffffffffffffffffffff166119ef836116af565b73ffffffffffffffffffffffffffffffffffffffff1614159050919050565b600080600090507a184f03e93ff9f4daa797ed6e38ed64bf6a1f0100000000000000008310611a6c577a184f03e93ff9f4daa797ed6e38ed64bf6a1f0100000000000000008381611a6257611a61612ec4565b5b0492506040810190505b6d04ee2d6d415b85acef81000000008310611aa9576d04ee2d6d415b85acef81000000008381611a9f57611a9e612ec4565b5b0492506020810190505b662386f26fc100008310611ad857662386f26fc100008381611ace57611acd612ec4565b5b0492506010810190505b6305f5e1008310611b01576305f5e1008381611af757611af6612ec4565b5b0492506008810190505b6127108310611b26576127108381611b1c57611b1b612ec4565b5b0492506004810190505b60648310611b495760648381611b3f57611b3e612ec4565b5b0492506002810190505b600a8310611b58576001810190505b80915050919050565b60008151905060006a636f6e736f6c652e6c6f679050602083016000808483855afa5050505050565b611b948383611e99565b611ba16000848484611d11565b611be0576040517f08c379a0000000000000000000000000000000000000000000000000000000008152600401611bd7906132ce565b60405180910390fd5b505050565b6001811115611d0557600073ffffffffffffffffffffffffffffffffffffffff168473ffffffffffffffffffffffffffffffffffffffff1614611c795780600360008673ffffffffffffffffffffffffffffffffffffffff1673ffffffffffffffffffffffffffffffffffffffff1681526020019081526020016000206000828254611c7191906132ee565b925050819055505b600073ffffffffffffffffffffffffffffffffffffffff168373ffffffffffffffffffffffffffffffffffffffff1614611d045780600360008573ffffffffffffffffffffffffffffffffffffffff1673ffffffffffffffffffffffffffffffffffffffff1681526020019081526020016000206000828254611cfc9190612f22565b925050819055505b5b50505050565b50505050565b6000611d328473ffffffffffffffffffffffffffffffffffffffff166120b7565b15611e8c578373ffffffffffffffffffffffffffffffffffffffff1663150b7a02611d5b610ed1565b8786866040518563ffffffff1660e01b8152600401611d7d9493929190613377565b6020604051808303816000875af1925050508015611db957506040513d601f19601f82011682018060405250810190611db691906133d8565b60015b611e3c573d8060008114611de9576040519150601f19603f3d011682016040523d82523d6000602084013e611dee565b606091505b50600081511415611e34576040517f08c379a0000000000000000000000000000000000000000000000000000000008152600401611e2b906132ce565b60405180910390fd5b805181602001fd5b63150b7a0260e01b7bffffffffffffffffffffffffffffffffffffffffffffffffffffffff1916817bffffffffffffffffffffffffffffffffffffffffffffffffffffffff191614915050611e91565b600190505b949350505050565b600073ffffffffffffffffffffffffffffffffffffffff168273ffffffffffffffffffffffffffffffffffffffff161415611f09576040517f08c379a0000000000000000000000000000000000000000000000000000000008152600401611f0090613451565b60405180910390fd5b611f12816119cd565b15611f52576040517f08c379a0000000000000000000000000000000000000000000000000000000008152600401611f49906134bd565b60405180910390fd5b611f60600083836001611be5565b611f69816119cd565b15611fa9576040517f08c379a0000000000000000000000000000000000000000000000000000000008152600401611fa0906134bd565b60405180910390fd5b6001600360008473ffffffffffffffffffffffffffffffffffffffff1673ffffffffffffffffffffffffffffffffffffffff16815260200190815260200160002060008282540192505081905550816002600083815260200190815260200160002060006101000a81548173ffffffffffffffffffffffffffffffffffffffff021916908373ffffffffffffffffffffffffffffffffffffffff160217905550808273ffffffffffffffffffffffffffffffffffffffff16600073ffffffffffffffffffffffffffffffffffffffff167fddf252ad1be2c89b69c2b068fc378daa952ba7f163c4a11628f55a4df523b3ef60405160405180910390a46120b3600083836001611d0b565b5050565b6000808273ffffffffffffffffffffffffffffffffffffffff163b119050919050565b8280546120e690612906565b90600052602060002090601f016020900481019282612108576000855561214f565b82601f1061212157805160ff191683800117855561214f565b8280016001018555821561214f579182015b8281111561214e578251825591602001919060010190612133565b5b50905061215c9190612160565b5090565b5b80821115612179576000816000905550600101612161565b5090565b6000604051905090565b600080fd5b600080fd5b60007fffffffff0000000000000000000000000000000000000000000000000000000082169050919050565b6121c681612191565b81146121d157600080fd5b50565b6000813590506121e3816121bd565b92915050565b6000602082840312156121ff576121fe612187565b5b600061220d848285016121d4565b91505092915050565b60008115159050919050565b61222b81612216565b82525050565b60006020820190506122466000830184612222565b92915050565b600081519050919050565b600082825260208201905092915050565b60005b8381101561228657808201518184015260208101905061226b565b83811115612295576000848401525b50505050565b6000601f19601f8301169050919050565b60006122b78261224c565b6122c18185612257565b93506122d1818560208601612268565b6122da8161229b565b840191505092915050565b600060208201905081810360008301526122ff81846122ac565b905092915050565b6000819050919050565b61231a81612307565b811461232557600080fd5b50565b60008135905061233781612311565b92915050565b60006020828403121561235357612352612187565b5b600061236184828501612328565b91505092915050565b600073ffffffffffffffffffffffffffffffffffffffff82169050919050565b60006123958261236a565b9050919050565b6123a58161238a565b82525050565b60006020820190506123c0600083018461239c565b92915050565b6123cf8161238a565b81146123da57600080fd5b50565b6000813590506123ec816123c6565b92915050565b6000806040838503121561240957612408612187565b5b6000612417858286016123dd565b925050602061242885828601612328565b9150509250929050565b600080fd5b600080fd5b600080fd5b60008083601f84011261245757612456612432565b5b8235905067ffffffffffffffff81111561247457612473612437565b5b6020830191508360018202830111156124905761248f61243c565b5b9250929050565b600080602083850312156124ae576124ad612187565b5b600083013567ffffffffffffffff8111156124cc576124cb61218c565b5b6124d885828601612441565b92509250509250929050565b6000806000606084860312156124fd576124fc612187565b5b600061250b868287016123dd565b935050602061251c868287016123dd565b925050604061252d86828701612328565b9150509250925092565b600080fd5b7f4e487b7100000000000000000000000000000000000000000000000000000000600052604160045260246000fd5b6125748261229b565b810181811067ffffffffffffffff821117156125935761259261253c565b5b80604052505050565b60006125a661217d565b90506125b2828261256b565b919050565b600067ffffffffffffffff8211156125d2576125d161253c565b5b6125db8261229b565b9050602081019050919050565b82818337600083830152505050565b600061260a612605846125b7565b61259c565b90508281526020810184848401111561262657612625612537565b5b6126318482856125e8565b509392505050565b600082601f83011261264e5761264d612432565b5b813561265e8482602086016125f7565b91505092915050565b60006020828403121561267d5761267c612187565b5b600082013567ffffffffffffffff81111561269b5761269a61218c565b5b6126a784828501612639565b91505092915050565b6000602082840312156126c6576126c5612187565b5b60006126d4848285016123dd565b91505092915050565b6126e681612307565b82525050565b600060208201905061270160008301846126dd565b92915050565b61271081612216565b811461271b57600080fd5b50565b60008135905061272d81612707565b92915050565b6000806040838503121561274a57612749612187565b5b6000612758858286016123dd565b92505060206127698582860161271e565b9150509250929050565b600067ffffffffffffffff82111561278e5761278d61253c565b5b6127978261229b565b9050602081019050919050565b60006127b76127b284612773565b61259c565b9050828152602081018484840111156127d3576127d2612537565b5b6127de8482856125e8565b509392505050565b600082601f8301126127fb576127fa612432565b5b813561280b8482602086016127a4565b91505092915050565b6000806000806080858703121561282e5761282d612187565b5b600061283c878288016123dd565b945050602061284d878288016123dd565b935050604061285e87828801612328565b925050606085013567ffffffffffffffff81111561287f5761287e61218c565b5b61288b878288016127e6565b91505092959194509250565b600080604083850312156128ae576128ad612187565b5b60006128bc858286016123dd565b92505060206128cd858286016123dd565b9150509250929050565b7f4e487b7100000000000000000000000000000000000000000000000000000000600052602260045260246000fd5b6000600282049050600182168061291e57607f821691505b60208210811415612932576129316128d7565b5b50919050565b7f4552433732313a20617070726f76616c20746f2063757272656e74206f776e6560008201527f7200000000000000000000000000000000000000000000000000000000000000602082015250565b6000612994602183612257565b915061299f82612938565b604082019050919050565b600060208201905081810360008301526129c381612987565b9050919050565b7f4552433732313a20617070726f76652063616c6c6572206973206e6f7420746f60008201527f6b656e206f776e6572206f7220617070726f76656420666f7220616c6c000000602082015250565b6000612a26603d83612257565b9150612a31826129ca565b604082019050919050565b60006020820190508181036000830152612a5581612a19565b9050919050565b600081905092915050565b60008190508160005260206000209050919050565b60008154612a8981612906565b612a938186612a5c565b94506001821660008114612aae5760018114612abf57612af2565b60ff19831686528186019350612af2565b612ac885612a67565b60005b83811015612aea57815481890152600182019150602081019050612acb565b838801955050505b50505092915050565b6000612b068261224c565b612b108185612a5c565b9350612b20818560208601612268565b80840191505092915050565b6000612b388385612a5c565b9350612b458385846125e8565b82840190509392505050565b6000612b5d8289612a7c565b9150612b698288612afb565b9150612b758287612a7c565b9150612b82828587612b2c565b9150612b8e8284612a7c565b9150819050979650505050505050565b7f7b22696d616765223a2022646174613a696d6167652f7376672b786d6c3b626160008201527f736536342c000000000000000000000000000000000000000000000000000000602082015250565b6000612bfa602583612a5c565b9150612c0582612b9e565b602582019050919050565b7f227d000000000000000000000000000000000000000000000000000000000000600082015250565b6000612c46600283612a5c565b9150612c5182612c10565b600282019050919050565b6000612c6782612bed565b9150612c738284612afb565b9150612c7e82612c39565b915081905092915050565b7f646174613a6170706c69636174696f6e2f6a736f6e3b6261736536342c000000600082015250565b6000612cbf601d83612a5c565b9150612cca82612c89565b601d82019050919050565b6000612ce082612cb2565b9150612cec8284612afb565b915081905092915050565b6000612d04828486612b2c565b91508190509392505050565b7f4552433732313a2063616c6c6572206973206e6f7420746f6b656e206f776e6560008201527f72206f7220617070726f76656400000000000000000000000000000000000000602082015250565b6000612d6c602d83612257565b9150612d7782612d10565b604082019050919050565b60006020820190508181036000830152612d9b81612d5f565b9050919050565b7f4552433732313a20696e76616c696420746f6b656e2049440000000000000000600082015250565b6000612dd8601883612257565b9150612de382612da2565b602082019050919050565b60006020820190508181036000830152612e0781612dcb565b9050919050565b7f4552433732313a2061646472657373207a65726f206973206e6f74206120766160008201527f6c6964206f776e65720000000000000000000000000000000000000000000000602082015250565b6000612e6a602983612257565b9150612e7582612e0e565b604082019050919050565b60006020820190508181036000830152612e9981612e5d565b9050919050565b6000612eac8285612afb565b9150612eb88284612afb565b91508190509392505050565b7f4e487b7100000000000000000000000000000000000000000000000000000000600052601260045260246000fd5b7f4e487b7100000000000000000000000000000000000000000000000000000000600052601160045260246000fd5b6000612f2d82612307565b9150612f3883612307565b9250827fffffffffffffffffffffffffffffffffffffffffffffffffffffffffffffffff03821115612f6d57612f6c612ef3565b5b828201905092915050565b6000612f8382612307565b9150612f8e83612307565b925082612f9e57612f9d612ec4565b5b828204905092915050565b6000612fb482612307565b9150612fbf83612307565b9250817fffffffffffffffffffffffffffffffffffffffffffffffffffffffffffffffff0483118215151615612ff857612ff7612ef3565b5b828202905092915050565b6000604082019050818103600083015261301d81856122ac565b9050818103602083015261303181846122ac565b90509392505050565b7f45524337323155524953746f726167653a2055524920736574206f66206e6f6e60008201527f6578697374656e7420746f6b656e000000000000000000000000000000000000602082015250565b6000613096602e83612257565b91506130a18261303a565b604082019050919050565b600060208201905081810360008301526130c581613089565b9050919050565b7f4552433732313a207472616e736665722066726f6d20696e636f72726563742060008201527f6f776e6572000000000000000000000000000000000000000000000000000000602082015250565b6000613128602583612257565b9150613133826130cc565b604082019050919050565b600060208201905081810360008301526131578161311b565b9050919050565b7f4552433732313a207472616e7366657220746f20746865207a65726f2061646460008201527f7265737300000000000000000000000000000000000000000000000000000000602082015250565b60006131ba602483612257565b91506131c58261315e565b604082019050919050565b600060208201905081810360008301526131e9816131ad565b9050919050565b7f4552433732313a20617070726f766520746f2063616c6c657200000000000000600082015250565b6000613226601983612257565b9150613231826131f0565b602082019050919050565b6000602082019050818103600083015261325581613219565b9050919050565b7f4552433732313a207472616e7366657220746f206e6f6e20455243373231526560008201527f63656976657220696d706c656d656e7465720000000000000000000000000000602082015250565b60006132b8603283612257565b91506132c38261325c565b604082019050919050565b600060208201905081810360008301526132e7816132ab565b9050919050565b60006132f982612307565b915061330483612307565b92508282101561331757613316612ef3565b5b828203905092915050565b600081519050919050565b600082825260208201905092915050565b600061334982613322565b613353818561332d565b9350613363818560208601612268565b61336c8161229b565b840191505092915050565b600060808201905061338c600083018761239c565b613399602083018661239c565b6133a660408301856126dd565b81810360608301526133b8818461333e565b905095945050505050565b6000815190506133d2816121bd565b92915050565b6000602082840312156133ee576133ed612187565b5b60006133fc848285016133c3565b91505092915050565b7f4552433732313a206d696e7420746f20746865207a65726f2061646472657373600082015250565b600061343b602083612257565b915061344682613405565b602082019050919050565b6000602082019050818103600083015261346a8161342e565b9050919050565b7f4552433732313a20746f6b656e20616c7265616479206d696e74656400000000600082015250565b60006134a7601c83612257565b91506134b282613471565b602082019050919050565b600060208201905081810360008301526134d68161349a565b905091905056fe4142434445464748494a4b4c4d4e4f505152535455565758595a6162636465666768696a6b6c6d6e6f707172737475767778797a303132333435363738392b2fa264697066735822122028c995a42e2e046b764f359c15b72acd0679f7d1fcaee6d16e58c75f2144ae7d64736f6c634300080a00333c2f746578743e3c7465787420783d223135302220793d2236302220666f6e742d73697a653d223234222066696c6c3d2223303030222066696c7465723d2275726c282341292220666f6e742d66616d696c793d2273616e732d73657269662220666f6e742d7765696768743d22626f6c64223e536d617274205374616d703c2f746578743e3c7265637420793d2237352220783d223235222077696474683d2234303022206865696768743d223122207374796c653d2266696c6c3a72676228302c302c30293b7374726f6b652d77696474683a303b7374726f6b653a72676228302c302c3029222f3e3c666f726569676e4f626a65637420783d2232302220793d223930222077696474683d2234303022206865696768743d22393030223e3c70207374796c653d22666f6e742d73697a653a20313070783b20636f6c6f723a20726762283133352c203134342c20313632293b20746578742d616c69676e3a206c6566743b20776f72642d627265616b3a20627265616b2d616c6c3b2220786d6c6e733d22687474703a2f2f7777772e77332e6f72672f313939392f7868746d6c223e3c73766720786d6c6e733d22687474703a2f2f7777772e77332e6f72672f323030302f737667222077696474683d2234353022206865696768743d22363030222066696c6c3d226e6f6e6522207374796c653d226261636b67726f756e642d636f6c6f723a7768697465736d6f6b65223e3c706174682066696c6c3d2275726c282342292220643d224d302030683237307632373048307a222f3e3c646566733e3c66696c7465722069643d22412220636f6c6f722d696e746572706f6c6174696f6e2d66696c746572733d2273524742222066696c746572556e6974733d227573657253706163654f6e55736522206865696768743d22363030222077696474683d22343530223e3c666544726f70536861646f772064783d2230222064793d22312220737464446576696174696f6e3d22322220666c6f6f642d6f7061636974793d222e323235222077696474683d223230302522206865696768743d2232303025222f3e3c2f66696c7465723e3c2f646566733e3c646566732f3e3c7465787420783d2231302220793d2232302220666f6e742d73697a653d2236222066696c6c3d2223303030222066696c7465723d2275726c282341292220666f6e742d66616d696c793d2273616e732d7365726966223e5549443a20",
  "linkReferences": {},
  "deployedLinkReferences": {}
}