{
  "_format": "hh-sol-artifact-1",
  "contractName": "Stamps",
  "sourceName": "contracts/Stamps.sol",
  "abi": [
    {
      "inputs": [],
      "stateMutability": "payable",
      "type": "constructor"
    },
    {
      "anonymous": false,
      "inputs": [
        {
          "indexed": true,
          "internalType": "address",
          "name": "owner",
          "type": "address"
        },
        {
          "indexed": true,
          "internalType": "address",
          "name": "approved",
          "type": "address"
        },
        {
          "indexed": true,
          "internalType": "uint256",
          "name": "tokenId",
          "type": "uint256"
        }
      ],
      "name": "Approval",
      "type": "event"
    },
    {
      "anonymous": false,
      "inputs": [
        {
          "indexed": true,
          "internalType": "address",
          "name": "owner",
          "type": "address"
        },
        {
          "indexed": true,
          "internalType": "address",
          "name": "operator",
          "type": "address"
        },
        {
          "indexed": false,
          "internalType": "bool",
          "name": "approved",
          "type": "bool"
        }
      ],
      "name": "ApprovalForAll",
      "type": "event"
    },
    {
      "anonymous": false,
      "inputs": [
        {
          "indexed": true,
          "internalType": "address",
          "name": "from",
          "type": "address"
        },
        {
          "indexed": true,
          "internalType": "address",
          "name": "to",
          "type": "address"
        },
        {
          "indexed": true,
          "internalType": "uint256",
          "name": "tokenId",
          "type": "uint256"
        }
      ],
      "name": "Transfer",
      "type": "event"
    },
    {
      "inputs": [
        {
          "internalType": "address",
          "name": "to",
          "type": "address"
        },
        {
          "internalType": "uint256",
          "name": "tokenId",
          "type": "uint256"
        }
      ],
      "name": "approve",
      "outputs": [],
      "stateMutability": "nonpayable",
      "type": "function"
    },
    {
      "inputs": [
        {
          "internalType": "address",
          "name": "owner",
          "type": "address"
        }
      ],
      "name": "balanceOf",
      "outputs": [
        {
          "internalType": "uint256",
          "name": "",
          "type": "uint256"
        }
      ],
      "stateMutability": "view",
      "type": "function"
    },
    {
      "inputs": [
        {
          "internalType": "string",
          "name": "stampData",
          "type": "string"
        }
      ],
      "name": "createStamp",
      "outputs": [],
      "stateMutability": "payable",
      "type": "function"
    },
    {
      "inputs": [
        {
          "internalType": "uint256",
          "name": "tokenId",
          "type": "uint256"
        }
      ],
      "name": "getApproved",
      "outputs": [
        {
          "internalType": "address",
          "name": "",
          "type": "address"
        }
      ],
      "stateMutability": "view",
      "type": "function"
    },
    {
      "inputs": [
        {
          "internalType": "string",
          "name": "stampId",
          "type": "string"
        }
      ],
      "name": "getStamp",
      "outputs": [
        {
          "internalType": "address",
          "name": "",
          "type": "address"
        }
      ],
      "stateMutability": "view",
      "type": "function"
    },
    {
      "inputs": [
        {
          "internalType": "address",
          "name": "owner",
          "type": "address"
        },
        {
          "internalType": "address",
          "name": "operator",
          "type": "address"
        }
      ],
      "name": "isApprovedForAll",
      "outputs": [
        {
          "internalType": "bool",
          "name": "",
          "type": "bool"
        }
      ],
      "stateMutability": "view",
      "type": "function"
    },
    {
      "inputs": [],
      "name": "name",
      "outputs": [
        {
          "internalType": "string",
          "name": "",
          "type": "string"
        }
      ],
      "stateMutability": "view",
      "type": "function"
    },
    {
      "inputs": [
        {
          "internalType": "uint256",
          "name": "tokenId",
          "type": "uint256"
        }
      ],
      "name": "ownerOf",
      "outputs": [
        {
          "internalType": "address",
          "name": "",
          "type": "address"
        }
      ],
      "stateMutability": "view",
      "type": "function"
    },
    {
      "inputs": [
        {
          "internalType": "address",
          "name": "from",
          "type": "address"
        },
        {
          "internalType": "address",
          "name": "to",
          "type": "address"
        },
        {
          "internalType": "uint256",
          "name": "tokenId",
          "type": "uint256"
        }
      ],
      "name": "safeTransferFrom",
      "outputs": [],
      "stateMutability": "nonpayable",
      "type": "function"
    },
    {
      "inputs": [
        {
          "internalType": "address",
          "name": "from",
          "type": "address"
        },
        {
          "internalType": "address",
          "name": "to",
          "type": "address"
        },
        {
          "internalType": "uint256",
          "name": "tokenId",
          "type": "uint256"
        },
        {
          "internalType": "bytes",
          "name": "data",
          "type": "bytes"
        }
      ],
      "name": "safeTransferFrom",
      "outputs": [],
      "stateMutability": "nonpayable",
      "type": "function"
    },
    {
      "inputs": [
        {
          "internalType": "address",
          "name": "operator",
          "type": "address"
        },
        {
          "internalType": "bool",
          "name": "approved",
          "type": "bool"
        }
      ],
      "name": "setApprovalForAll",
      "outputs": [],
      "stateMutability": "nonpayable",
      "type": "function"
    },
    {
      "inputs": [
        {
          "internalType": "string",
          "name": "",
          "type": "string"
        }
      ],
      "name": "stamps",
      "outputs": [
        {
          "internalType": "address",
          "name": "",
          "type": "address"
        }
      ],
      "stateMutability": "view",
      "type": "function"
    },
    {
      "inputs": [
        {
          "internalType": "bytes4",
          "name": "interfaceId",
          "type": "bytes4"
        }
      ],
      "name": "supportsInterface",
      "outputs": [
        {
          "internalType": "bool",
          "name": "",
          "type": "bool"
        }
      ],
      "stateMutability": "view",
      "type": "function"
    },
    {
      "inputs": [],
      "name": "symbol",
      "outputs": [
        {
          "internalType": "string",
          "name": "",
          "type": "string"
        }
      ],
      "stateMutability": "view",
      "type": "function"
    },
    {
      "inputs": [
        {
          "internalType": "uint256",
          "name": "tokenId",
          "type": "uint256"
        }
      ],
      "name": "tokenURI",
      "outputs": [
        {
          "internalType": "string",
          "name": "",
          "type": "string"
        }
      ],
      "stateMutability": "view",
      "type": "function"
    },
    {
      "inputs": [
        {
          "internalType": "address",
          "name": "from",
          "type": "address"
        },
        {
          "internalType": "address",
          "name": "to",
          "type": "address"
        },
        {
          "internalType": "uint256",
          "name": "tokenId",
          "type": "uint256"
        }
      ],
      "name": "transferFrom",
      "outputs": [],
      "stateMutability": "nonpayable",
      "type": "function"
    }
  ],
  "bytecode": "0x60806040526040518061020001604052806101db8152602001620038ea6101db9139600890805190602001906200003892919062000162565b50604051806101e001604052806101a68152602001620037446101a69139600990805190602001906200006d92919062000162565b506040518060400160405280601a81526020017f3c2f703e3c2f666f726569676e4f626a6563743e3c2f7376673e000000000000815250600a9080519060200190620000bb92919062000162565b506040518060400160405280601381526020017f536d617274205374616d702053657276696365000000000000000000000000008152506040518060400160405280600381526020017f535353000000000000000000000000000000000000000000000000000000000081525081600090805190602001906200014092919062000162565b5080600190805190602001906200015992919062000162565b50505062000277565b828054620001709062000241565b90600052602060002090601f016020900481019282620001945760008555620001e0565b82601f10620001af57805160ff1916838001178555620001e0565b82800160010185558215620001e0579182015b82811115620001df578251825591602001919060010190620001c2565b5b509050620001ef9190620001f3565b5090565b5b808211156200020e576000816000905550600101620001f4565b5090565b7f4e487b7100000000000000000000000000000000000000000000000000000000600052602260045260246000fd5b600060028204905060018216806200025a57607f821691505b6020821081141562000271576200027062000212565b5b50919050565b6134bd80620002876000396000f3fe6080604052600436106100f35760003560e01c80636352211e1161008a578063a9481e9111610059578063a9481e911461033f578063b88d4fde1461037c578063c87b56dd146103a5578063e985e9c5146103e2576100f3565b80636352211e1461027157806370a08231146102ae57806395d89b41146102eb578063a22cb46514610316576100f3565b80631048f1a9116100c65780631048f1a9146101c65780631320ed2d1461020357806323b872dd1461021f57806342842e0e14610248576100f3565b806301ffc9a7146100f857806306fdde0314610135578063081812fc14610160578063095ea7b31461019d575b600080fd5b34801561010457600080fd5b5061011f600480360381019061011a91906120b3565b61041f565b60405161012c91906120fb565b60405180910390f35b34801561014157600080fd5b5061014a610501565b60405161015791906121af565b60405180910390f35b34801561016c57600080fd5b5061018760048036038101906101829190612207565b610593565b6040516101949190612275565b60405180910390f35b3480156101a957600080fd5b506101c460048036038101906101bf91906122bc565b6105d9565b005b3480156101d257600080fd5b506101ed60048036038101906101e89190612361565b6106f1565b6040516101fa9190612275565b60405180910390f35b61021d60048036038101906102189190612361565b61073c565b005b34801561022b57600080fd5b50610246600480360381019061024191906123ae565b6108c6565b005b34801561025457600080fd5b5061026f600480360381019061026a91906123ae565b610926565b005b34801561027d57600080fd5b5061029860048036038101906102939190612207565b610946565b6040516102a59190612275565b60405180910390f35b3480156102ba57600080fd5b506102d560048036038101906102d09190612401565b6109cd565b6040516102e2919061243d565b60405180910390f35b3480156102f757600080fd5b50610300610a85565b60405161030d91906121af565b60405180910390f35b34801561032257600080fd5b5061033d60048036038101906103389190612484565b610b17565b005b34801561034b57600080fd5b50610366600480360381019061036191906125f4565b610b2d565b6040516103739190612275565b60405180910390f35b34801561038857600080fd5b506103a3600480360381019061039e91906126de565b610b76565b005b3480156103b157600080fd5b506103cc60048036038101906103c79190612207565b610bd8565b6040516103d991906121af565b60405180910390f35b3480156103ee57600080fd5b5061040960048036038101906104049190612761565b610ceb565b60405161041691906120fb565b60405180910390f35b60007f80ac58cd000000000000000000000000000000000000000000000000000000007bffffffffffffffffffffffffffffffffffffffffffffffffffffffff1916827bffffffffffffffffffffffffffffffffffffffffffffffffffffffff191614806104ea57507f5b5e139f000000000000000000000000000000000000000000000000000000007bffffffffffffffffffffffffffffffffffffffffffffffffffffffff1916827bffffffffffffffffffffffffffffffffffffffffffffffffffffffff1916145b806104fa57506104f982610d7f565b5b9050919050565b606060008054610510906127d0565b80601f016020809104026020016040519081016040528092919081815260200182805461053c906127d0565b80156105895780601f1061055e57610100808354040283529160200191610589565b820191906000526020600020905b81548152906001019060200180831161056c57829003601f168201915b5050505050905090565b600061059e82610de9565b6004600083815260200190815260200160002060009054906101000a900473ffffffffffffffffffffffffffffffffffffffff169050919050565b60006105e482610946565b90508073ffffffffffffffffffffffffffffffffffffffff168373ffffffffffffffffffffffffffffffffffffffff161415610655576040517f08c379a000000000000000000000000000000000000000000000000000000000815260040161064c90612874565b60405180910390fd5b8073ffffffffffffffffffffffffffffffffffffffff16610674610e34565b73ffffffffffffffffffffffffffffffffffffffff1614806106a357506106a28161069d610e34565b610ceb565b5b6106e2576040517f08c379a00000000000000000000000000000000000000000000000000000000081526004016106d990612906565b60405180910390fd5b6106ec8383610e3c565b505050565b6000600b8383604051610705929190612956565b908152602001604051809103902060009054906101000a900473ffffffffffffffffffffffffffffffffffffffff16905092915050565b6000610766426040516020016107529190612990565b604051602081830303815290604052610ef5565b9050600060088260098686600a60405160200161078896959493929190612a70565b604051602081830303815290604052905060006107a56007611059565b905060006107db846107b685610ef5565b6040516020016107c7929190612bc7565b604051602081830303815290604052610ef5565b90506000816040516020016107f09190612c58565b60405160208183030381529060405290506108406040518060400160405280600381526020017f555249000000000000000000000000000000000000000000000000000000000081525082611067565b61084a3384611103565b6108548382611121565b33600b8888604051610867929190612956565b908152602001604051809103902060006101000a81548173ffffffffffffffffffffffffffffffffffffffff021916908373ffffffffffffffffffffffffffffffffffffffff1602179055506108bd6007611195565b50505050505050565b6108d76108d1610e34565b826111ab565b610916576040517f08c379a000000000000000000000000000000000000000000000000000000000815260040161090d90612cec565b60405180910390fd5b610921838383611240565b505050565b61094183838360405180602001604052806000815250610b76565b505050565b6000806109528361153a565b9050600073ffffffffffffffffffffffffffffffffffffffff168173ffffffffffffffffffffffffffffffffffffffff1614156109c4576040517f08c379a00000000000000000000000000000000000000000000000000000000081526004016109bb90612d58565b60405180910390fd5b80915050919050565b60008073ffffffffffffffffffffffffffffffffffffffff168273ffffffffffffffffffffffffffffffffffffffff161415610a3e576040517f08c379a0000000000000000000000000000000000000000000000000000000008152600401610a3590612dea565b60405180910390fd5b600360008373ffffffffffffffffffffffffffffffffffffffff1673ffffffffffffffffffffffffffffffffffffffff168152602001908152602001600020549050919050565b606060018054610a94906127d0565b80601f0160208091040260200160405190810160405280929190818152602001828054610ac0906127d0565b8015610b0d5780601f10610ae257610100808354040283529160200191610b0d565b820191906000526020600020905b815481529060010190602001808311610af057829003601f168201915b5050505050905090565b610b29610b22610e34565b8383611577565b5050565b600b818051602081018201805184825260208301602085012081835280955050505050506000915054906101000a900473ffffffffffffffffffffffffffffffffffffffff1681565b610b87610b81610e34565b836111ab565b610bc6576040517f08c379a0000000000000000000000000000000000000000000000000000000008152600401610bbd90612cec565b60405180910390fd5b610bd2848484846116e4565b50505050565b6060610be382610de9565b6000600660008481526020019081526020016000208054610c03906127d0565b80601f0160208091040260200160405190810160405280929190818152602001828054610c2f906127d0565b8015610c7c5780601f10610c5157610100808354040283529160200191610c7c565b820191906000526020600020905b815481529060010190602001808311610c5f57829003601f168201915b505050505090506000610c8d611740565b9050600081511415610ca3578192505050610ce6565b600082511115610cd8578082604051602001610cc0929190612e0a565b60405160208183030381529060405292505050610ce6565b610ce184611757565b925050505b919050565b6000600560008473ffffffffffffffffffffffffffffffffffffffff1673ffffffffffffffffffffffffffffffffffffffff16815260200190815260200160002060008373ffffffffffffffffffffffffffffffffffffffff1673ffffffffffffffffffffffffffffffffffffffff16815260200190815260200160002060009054906101000a900460ff16905092915050565b60007f01ffc9a7000000000000000000000000000000000000000000000000000000007bffffffffffffffffffffffffffffffffffffffffffffffffffffffff1916827bffffffffffffffffffffffffffffffffffffffffffffffffffffffff1916149050919050565b610df2816117bf565b610e31576040517f08c379a0000000000000000000000000000000000000000000000000000000008152600401610e2890612d58565b60405180910390fd5b50565b600033905090565b816004600083815260200190815260200160002060006101000a81548173ffffffffffffffffffffffffffffffffffffffff021916908373ffffffffffffffffffffffffffffffffffffffff160217905550808273ffffffffffffffffffffffffffffffffffffffff16610eaf83610946565b73ffffffffffffffffffffffffffffffffffffffff167f8c5be1e5ebec7d5bd14f71427d1e84f3dd0314c0f7b2291e5b200ac8c7c3b92560405160405180910390a45050565b6060600082511415610f1857604051806020016040528060008152509050611054565b60006040518060600160405280604081526020016134486040913990506000600360028551610f479190612e5d565b610f519190612ee2565b6004610f5d9190612f13565b67ffffffffffffffff811115610f7657610f756124c9565b5b6040519080825280601f01601f191660200182016040528015610fa85781602001600182028036833780820191505090505b509050600182016020820185865187015b80821015611014576003820191508151603f8160121c168501518453600184019350603f81600c1c168501518453600184019350603f8160061c168501518453600184019350603f8116850151845360018401935050610fb9565b505060038651066001811461103057600281146110435761104b565b603d6001830353603d600283035361104b565b603d60018303535b50505080925050505b919050565b600081600001549050919050565b6110ff828260405160240161107d929190612f6d565b6040516020818303038152906040527f4b5c4277000000000000000000000000000000000000000000000000000000007bffffffffffffffffffffffffffffffffffffffffffffffffffffffff19166020820180517bffffffffffffffffffffffffffffffffffffffffffffffffffffffff8381831617835250505050611800565b5050565b61111d828260405180602001604052806000815250611829565b5050565b61112a826117bf565b611169576040517f08c379a000000000000000000000000000000000000000000000000000000000815260040161116090613016565b60405180910390fd5b80600660008481526020019081526020016000209080519060200190611190929190611fa4565b505050565b6001816000016000828254019250508190555050565b6000806111b783610946565b90508073ffffffffffffffffffffffffffffffffffffffff168473ffffffffffffffffffffffffffffffffffffffff1614806111f957506111f88185610ceb565b5b8061123757508373ffffffffffffffffffffffffffffffffffffffff1661121f84610593565b73ffffffffffffffffffffffffffffffffffffffff16145b91505092915050565b8273ffffffffffffffffffffffffffffffffffffffff1661126082610946565b73ffffffffffffffffffffffffffffffffffffffff16146112b6576040517f08c379a00000000000000000000000000000000000000000000000000000000081526004016112ad906130a8565b60405180910390fd5b600073ffffffffffffffffffffffffffffffffffffffff168273ffffffffffffffffffffffffffffffffffffffff161415611326576040517f08c379a000000000000000000000000000000000000000000000000000000000815260040161131d9061313a565b60405180910390fd5b6113338383836001611884565b8273ffffffffffffffffffffffffffffffffffffffff1661135382610946565b73ffffffffffffffffffffffffffffffffffffffff16146113a9576040517f08c379a00000000000000000000000000000000000000000000000000000000081526004016113a0906130a8565b60405180910390fd5b6004600082815260200190815260200160002060006101000a81549073ffffffffffffffffffffffffffffffffffffffff02191690556001600360008573ffffffffffffffffffffffffffffffffffffffff1673ffffffffffffffffffffffffffffffffffffffff168152602001908152602001600020600082825403925050819055506001600360008473ffffffffffffffffffffffffffffffffffffffff1673ffffffffffffffffffffffffffffffffffffffff16815260200190815260200160002060008282540192505081905550816002600083815260200190815260200160002060006101000a81548173ffffffffffffffffffffffffffffffffffffffff021916908373ffffffffffffffffffffffffffffffffffffffff160217905550808273ffffffffffffffffffffffffffffffffffffffff168473ffffffffffffffffffffffffffffffffffffffff167fddf252ad1be2c89b69c2b068fc378daa952ba7f163c4a11628f55a4df523b3ef60405160405180910390a461153583838360016119aa565b505050565b60006002600083815260200190815260200160002060009054906101000a900473ffffffffffffffffffffffffffffffffffffffff169050919050565b8173ffffffffffffffffffffffffffffffffffffffff168373ffffffffffffffffffffffffffffffffffffffff1614156115e6576040517f08c379a00000000000000000000000000000000000000000000000000000000081526004016115dd906131a6565b60405180910390fd5b80600560008573ffffffffffffffffffffffffffffffffffffffff1673ffffffffffffffffffffffffffffffffffffffff16815260200190815260200160002060008473ffffffffffffffffffffffffffffffffffffffff1673ffffffffffffffffffffffffffffffffffffffff16815260200190815260200160002060006101000a81548160ff0219169083151502179055508173ffffffffffffffffffffffffffffffffffffffff168373ffffffffffffffffffffffffffffffffffffffff167f17307eab39ab6107e8899845ad3d59bd9653f200f220920489ca2b5937696c31836040516116d791906120fb565b60405180910390a3505050565b6116ef848484611240565b6116fb848484846119b0565b61173a576040517f08c379a000000000000000000000000000000000000000000000000000000000815260040161173190613238565b60405180910390fd5b50505050565b606060405180602001604052806000815250905090565b606061176282610de9565b600061176c611740565b9050600081511161178c57604051806020016040528060008152506117b7565b8061179684611b38565b6040516020016117a7929190612e0a565b6040516020818303038152906040525b915050919050565b60008073ffffffffffffffffffffffffffffffffffffffff166117e18361153a565b73ffffffffffffffffffffffffffffffffffffffff1614159050919050565b60008151905060006a636f6e736f6c652e6c6f679050602083016000808483855afa5050505050565b6118338383611c10565b61184060008484846119b0565b61187f576040517f08c379a000000000000000000000000000000000000000000000000000000000815260040161187690613238565b60405180910390fd5b505050565b60018111156119a457600073ffffffffffffffffffffffffffffffffffffffff168473ffffffffffffffffffffffffffffffffffffffff16146119185780600360008673ffffffffffffffffffffffffffffffffffffffff1673ffffffffffffffffffffffffffffffffffffffff16815260200190815260200160002060008282546119109190613258565b925050819055505b600073ffffffffffffffffffffffffffffffffffffffff168373ffffffffffffffffffffffffffffffffffffffff16146119a35780600360008573ffffffffffffffffffffffffffffffffffffffff1673ffffffffffffffffffffffffffffffffffffffff168152602001908152602001600020600082825461199b9190612e5d565b925050819055505b5b50505050565b50505050565b60006119d18473ffffffffffffffffffffffffffffffffffffffff16611e2e565b15611b2b578373ffffffffffffffffffffffffffffffffffffffff1663150b7a026119fa610e34565b8786866040518563ffffffff1660e01b8152600401611a1c94939291906132e1565b6020604051808303816000875af1925050508015611a5857506040513d601f19601f82011682018060405250810190611a559190613342565b60015b611adb573d8060008114611a88576040519150601f19603f3d011682016040523d82523d6000602084013e611a8d565b606091505b50600081511415611ad3576040517f08c379a0000000000000000000000000000000000000000000000000000000008152600401611aca90613238565b60405180910390fd5b805181602001fd5b63150b7a0260e01b7bffffffffffffffffffffffffffffffffffffffffffffffffffffffff1916817bffffffffffffffffffffffffffffffffffffffffffffffffffffffff191614915050611b30565b600190505b949350505050565b606060006001611b4784611e51565b01905060008167ffffffffffffffff811115611b6657611b656124c9565b5b6040519080825280601f01601f191660200182016040528015611b985781602001600182028036833780820191505090505b509050600082602001820190505b600115611c05578080600190039150507f3031323334353637383961626364656600000000000000000000000000000000600a86061a8153600a8581611bef57611bee612eb3565b5b0494506000851415611c0057611c05565b611ba6565b819350505050919050565b600073ffffffffffffffffffffffffffffffffffffffff168273ffffffffffffffffffffffffffffffffffffffff161415611c80576040517f08c379a0000000000000000000000000000000000000000000000000000000008152600401611c77906133bb565b60405180910390fd5b611c89816117bf565b15611cc9576040517f08c379a0000000000000000000000000000000000000000000000000000000008152600401611cc090613427565b60405180910390fd5b611cd7600083836001611884565b611ce0816117bf565b15611d20576040517f08c379a0000000000000000000000000000000000000000000000000000000008152600401611d1790613427565b60405180910390fd5b6001600360008473ffffffffffffffffffffffffffffffffffffffff1673ffffffffffffffffffffffffffffffffffffffff16815260200190815260200160002060008282540192505081905550816002600083815260200190815260200160002060006101000a81548173ffffffffffffffffffffffffffffffffffffffff021916908373ffffffffffffffffffffffffffffffffffffffff160217905550808273ffffffffffffffffffffffffffffffffffffffff16600073ffffffffffffffffffffffffffffffffffffffff167fddf252ad1be2c89b69c2b068fc378daa952ba7f163c4a11628f55a4df523b3ef60405160405180910390a4611e2a6000838360016119aa565b5050565b6000808273ffffffffffffffffffffffffffffffffffffffff163b119050919050565b600080600090507a184f03e93ff9f4daa797ed6e38ed64bf6a1f0100000000000000008310611eaf577a184f03e93ff9f4daa797ed6e38ed64bf6a1f0100000000000000008381611ea557611ea4612eb3565b5b0492506040810190505b6d04ee2d6d415b85acef81000000008310611eec576d04ee2d6d415b85acef81000000008381611ee257611ee1612eb3565b5b0492506020810190505b662386f26fc100008310611f1b57662386f26fc100008381611f1157611f10612eb3565b5b0492506010810190505b6305f5e1008310611f44576305f5e1008381611f3a57611f39612eb3565b5b0492506008810190505b6127108310611f69576127108381611f5f57611f5e612eb3565b5b0492506004810190505b60648310611f8c5760648381611f8257611f81612eb3565b5b0492506002810190505b600a8310611f9b576001810190505b80915050919050565b828054611fb0906127d0565b90600052602060002090601f016020900481019282611fd25760008555612019565b82601f10611feb57805160ff1916838001178555612019565b82800160010185558215612019579182015b82811115612018578251825591602001919060010190611ffd565b5b509050612026919061202a565b5090565b5b8082111561204357600081600090555060010161202b565b5090565b6000604051905090565b600080fd5b600080fd5b60007fffffffff0000000000000000000000000000000000000000000000000000000082169050919050565b6120908161205b565b811461209b57600080fd5b50565b6000813590506120ad81612087565b92915050565b6000602082840312156120c9576120c8612051565b5b60006120d78482850161209e565b91505092915050565b60008115159050919050565b6120f5816120e0565b82525050565b600060208201905061211060008301846120ec565b92915050565b600081519050919050565b600082825260208201905092915050565b60005b83811015612150578082015181840152602081019050612135565b8381111561215f576000848401525b50505050565b6000601f19601f8301169050919050565b600061218182612116565b61218b8185612121565b935061219b818560208601612132565b6121a481612165565b840191505092915050565b600060208201905081810360008301526121c98184612176565b905092915050565b6000819050919050565b6121e4816121d1565b81146121ef57600080fd5b50565b600081359050612201816121db565b92915050565b60006020828403121561221d5761221c612051565b5b600061222b848285016121f2565b91505092915050565b600073ffffffffffffffffffffffffffffffffffffffff82169050919050565b600061225f82612234565b9050919050565b61226f81612254565b82525050565b600060208201905061228a6000830184612266565b92915050565b61229981612254565b81146122a457600080fd5b50565b6000813590506122b681612290565b92915050565b600080604083850312156122d3576122d2612051565b5b60006122e1858286016122a7565b92505060206122f2858286016121f2565b9150509250929050565b600080fd5b600080fd5b600080fd5b60008083601f840112612321576123206122fc565b5b8235905067ffffffffffffffff81111561233e5761233d612301565b5b60208301915083600182028301111561235a57612359612306565b5b9250929050565b6000806020838503121561237857612377612051565b5b600083013567ffffffffffffffff81111561239657612395612056565b5b6123a28582860161230b565b92509250509250929050565b6000806000606084860312156123c7576123c6612051565b5b60006123d5868287016122a7565b93505060206123e6868287016122a7565b92505060406123f7868287016121f2565b9150509250925092565b60006020828403121561241757612416612051565b5b6000612425848285016122a7565b91505092915050565b612437816121d1565b82525050565b6000602082019050612452600083018461242e565b92915050565b612461816120e0565b811461246c57600080fd5b50565b60008135905061247e81612458565b92915050565b6000806040838503121561249b5761249a612051565b5b60006124a9858286016122a7565b92505060206124ba8582860161246f565b9150509250929050565b600080fd5b7f4e487b7100000000000000000000000000000000000000000000000000000000600052604160045260246000fd5b61250182612165565b810181811067ffffffffffffffff821117156125205761251f6124c9565b5b80604052505050565b6000612533612047565b905061253f82826124f8565b919050565b600067ffffffffffffffff82111561255f5761255e6124c9565b5b61256882612165565b9050602081019050919050565b82818337600083830152505050565b600061259761259284612544565b612529565b9050828152602081018484840111156125b3576125b26124c4565b5b6125be848285612575565b509392505050565b600082601f8301126125db576125da6122fc565b5b81356125eb848260208601612584565b91505092915050565b60006020828403121561260a57612609612051565b5b600082013567ffffffffffffffff81111561262857612627612056565b5b612634848285016125c6565b91505092915050565b600067ffffffffffffffff821115612658576126576124c9565b5b61266182612165565b9050602081019050919050565b600061268161267c8461263d565b612529565b90508281526020810184848401111561269d5761269c6124c4565b5b6126a8848285612575565b509392505050565b600082601f8301126126c5576126c46122fc565b5b81356126d584826020860161266e565b91505092915050565b600080600080608085870312156126f8576126f7612051565b5b6000612706878288016122a7565b9450506020612717878288016122a7565b9350506040612728878288016121f2565b925050606085013567ffffffffffffffff81111561274957612748612056565b5b612755878288016126b0565b91505092959194509250565b6000806040838503121561277857612777612051565b5b6000612786858286016122a7565b9250506020612797858286016122a7565b9150509250929050565b7f4e487b7100000000000000000000000000000000000000000000000000000000600052602260045260246000fd5b600060028204905060018216806127e857607f821691505b602082108114156127fc576127fb6127a1565b5b50919050565b7f4552433732313a20617070726f76616c20746f2063757272656e74206f776e6560008201527f7200000000000000000000000000000000000000000000000000000000000000602082015250565b600061285e602183612121565b915061286982612802565b604082019050919050565b6000602082019050818103600083015261288d81612851565b9050919050565b7f4552433732313a20617070726f76652063616c6c6572206973206e6f7420746f60008201527f6b656e206f776e6572206f7220617070726f76656420666f7220616c6c000000602082015250565b60006128f0603d83612121565b91506128fb82612894565b604082019050919050565b6000602082019050818103600083015261291f816128e3565b9050919050565b600081905092915050565b600061293d8385612926565b935061294a838584612575565b82840190509392505050565b6000612963828486612931565b91508190509392505050565b6000819050919050565b61298a612985826121d1565b61296f565b82525050565b600061299c8284612979565b60208201915081905092915050565b60008190508160005260206000209050919050565b600081546129cd816127d0565b6129d78186612926565b945060018216600081146129f25760018114612a0357612a36565b60ff19831686528186019350612a36565b612a0c856129ab565b60005b83811015612a2e57815481890152600182019150602081019050612a0f565b838801955050505b50505092915050565b6000612a4a82612116565b612a548185612926565b9350612a64818560208601612132565b80840191505092915050565b6000612a7c82896129c0565b9150612a888288612a3f565b9150612a9482876129c0565b9150612aa1828587612931565b9150612aad82846129c0565b9150819050979650505050505050565b7f7b227374616d704964223a202200000000000000000000000000000000000000600082015250565b6000612af3600d83612926565b9150612afe82612abd565b600d82019050919050565b7f222c2022696d616765223a2022646174613a696d6167652f7376672b786d6c3b60008201527f6261736536342c00000000000000000000000000000000000000000000000000602082015250565b6000612b65602783612926565b9150612b7082612b09565b602782019050919050565b7f227d000000000000000000000000000000000000000000000000000000000000600082015250565b6000612bb1600283612926565b9150612bbc82612b7b565b600282019050919050565b6000612bd282612ae6565b9150612bde8285612a3f565b9150612be982612b58565b9150612bf58284612a3f565b9150612c0082612ba4565b91508190509392505050565b7f646174613a6170706c69636174696f6e2f6a736f6e3b6261736536342c000000600082015250565b6000612c42601d83612926565b9150612c4d82612c0c565b601d82019050919050565b6000612c6382612c35565b9150612c6f8284612a3f565b915081905092915050565b7f4552433732313a2063616c6c6572206973206e6f7420746f6b656e206f776e6560008201527f72206f7220617070726f76656400000000000000000000000000000000000000602082015250565b6000612cd6602d83612121565b9150612ce182612c7a565b604082019050919050565b60006020820190508181036000830152612d0581612cc9565b9050919050565b7f4552433732313a20696e76616c696420746f6b656e2049440000000000000000600082015250565b6000612d42601883612121565b9150612d4d82612d0c565b602082019050919050565b60006020820190508181036000830152612d7181612d35565b9050919050565b7f4552433732313a2061646472657373207a65726f206973206e6f74206120766160008201527f6c6964206f776e65720000000000000000000000000000000000000000000000602082015250565b6000612dd4602983612121565b9150612ddf82612d78565b604082019050919050565b60006020820190508181036000830152612e0381612dc7565b9050919050565b6000612e168285612a3f565b9150612e228284612a3f565b91508190509392505050565b7f4e487b7100000000000000000000000000000000000000000000000000000000600052601160045260246000fd5b6000612e68826121d1565b9150612e73836121d1565b9250827fffffffffffffffffffffffffffffffffffffffffffffffffffffffffffffffff03821115612ea857612ea7612e2e565b5b828201905092915050565b7f4e487b7100000000000000000000000000000000000000000000000000000000600052601260045260246000fd5b6000612eed826121d1565b9150612ef8836121d1565b925082612f0857612f07612eb3565b5b828204905092915050565b6000612f1e826121d1565b9150612f29836121d1565b9250817fffffffffffffffffffffffffffffffffffffffffffffffffffffffffffffffff0483118215151615612f6257612f61612e2e565b5b828202905092915050565b60006040820190508181036000830152612f878185612176565b90508181036020830152612f9b8184612176565b90509392505050565b7f45524337323155524953746f726167653a2055524920736574206f66206e6f6e60008201527f6578697374656e7420746f6b656e000000000000000000000000000000000000602082015250565b6000613000602e83612121565b915061300b82612fa4565b604082019050919050565b6000602082019050818103600083015261302f81612ff3565b9050919050565b7f4552433732313a207472616e736665722066726f6d20696e636f72726563742060008201527f6f776e6572000000000000000000000000000000000000000000000000000000602082015250565b6000613092602583612121565b915061309d82613036565b604082019050919050565b600060208201905081810360008301526130c181613085565b9050919050565b7f4552433732313a207472616e7366657220746f20746865207a65726f2061646460008201527f7265737300000000000000000000000000000000000000000000000000000000602082015250565b6000613124602483612121565b915061312f826130c8565b604082019050919050565b6000602082019050818103600083015261315381613117565b9050919050565b7f4552433732313a20617070726f766520746f2063616c6c657200000000000000600082015250565b6000613190601983612121565b915061319b8261315a565b602082019050919050565b600060208201905081810360008301526131bf81613183565b9050919050565b7f4552433732313a207472616e7366657220746f206e6f6e20455243373231526560008201527f63656976657220696d706c656d656e7465720000000000000000000000000000602082015250565b6000613222603283612121565b915061322d826131c6565b604082019050919050565b6000602082019050818103600083015261325181613215565b9050919050565b6000613263826121d1565b915061326e836121d1565b92508282101561328157613280612e2e565b5b828203905092915050565b600081519050919050565b600082825260208201905092915050565b60006132b38261328c565b6132bd8185613297565b93506132cd818560208601612132565b6132d681612165565b840191505092915050565b60006080820190506132f66000830187612266565b6133036020830186612266565b613310604083018561242e565b818103606083015261332281846132a8565b905095945050505050565b60008151905061333c81612087565b92915050565b60006020828403121561335857613357612051565b5b60006133668482850161332d565b91505092915050565b7f4552433732313a206d696e7420746f20746865207a65726f2061646472657373600082015250565b60006133a5602083612121565b91506133b08261336f565b602082019050919050565b600060208201905081810360008301526133d481613398565b9050919050565b7f4552433732313a20746f6b656e20616c7265616479206d696e74656400000000600082015250565b6000613411601c83612121565b915061341c826133db565b602082019050919050565b6000602082019050818103600083015261344081613404565b905091905056fe4142434445464748494a4b4c4d4e4f505152535455565758595a6162636465666768696a6b6c6d6e6f707172737475767778797a303132333435363738392b2fa2646970667358221220ac2d1ddf232a56d6124ae1c1d562fc0af14741bd6f838316037251e606f95f4964736f6c634300080a00333c2f746578743e3c7465787420783d223135302220793d2236302220666f6e742d73697a653d223234222066696c6c3d2223303030222066696c7465723d2275726c282341292220666f6e742d66616d696c793d2273616e732d73657269662220666f6e742d7765696768743d22626f6c64223e536d617274205374616d703c2f746578743e3c7265637420793d2237352220783d223235222077696474683d2234303022206865696768743d223122207374796c653d2266696c6c3a72676228302c302c30293b7374726f6b652d77696474683a303b7374726f6b653a72676228302c302c3029222f3e3c666f726569676e4f626a65637420783d2232302220793d223930222077696474683d2234303022206865696768743d22393030223e3c70207374796c653d22666f6e742d73697a653a20313070783b20636f6c6f723a20726762283133352c203134342c20313632293b20746578742d616c69676e3a206c6566743b20776f72642d627265616b3a20627265616b2d616c6c3b2220786d6c6e733d22687474703a2f2f7777772e77332e6f72672f313939392f7868746d6c223e3c73766720786d6c6e733d22687474703a2f2f7777772e77332e6f72672f323030302f737667222077696474683d2234353022206865696768743d22363030222066696c6c3d226e6f6e6522207374796c653d226261636b67726f756e642d636f6c6f723a7768697465736d6f6b65223e3c706174682066696c6c3d2275726c282342292220643d224d302030683237307632373048307a222f3e3c646566733e3c66696c7465722069643d22412220636f6c6f722d696e746572706f6c6174696f6e2d66696c746572733d2273524742222066696c746572556e6974733d227573657253706163654f6e55736522206865696768743d22363030222077696474683d22343530223e3c666544726f70536861646f772064783d2230222064793d22312220737464446576696174696f6e3d22322220666c6f6f642d6f7061636974793d222e323235222077696474683d223230302522206865696768743d2232303025222f3e3c2f66696c7465723e3c2f646566733e3c646566732f3e3c7465787420783d2231302220793d2232302220666f6e742d73697a653d2236222066696c6c3d2223303030222066696c7465723d2275726c282341292220666f6e742d66616d696c793d2273616e732d7365726966223e5549443a20",
  "linkReferences": {},
  "deployedLinkReferences": {}
}